{
  "contractName": "Dbank",
  "abi": [
    {
      "inputs": [],
      "payable": true,
      "stateMutability": "payable",
      "type": "constructor"
    },
    {
      "anonymous": false,
      "inputs": [
        {
          "indexed": false,
          "internalType": "address",
          "name": "accAddress",
          "type": "address"
        },
        {
          "indexed": false,
          "internalType": "uint256",
          "name": "amount",
          "type": "uint256"
        }
      ],
      "name": "depositMade",
      "type": "event"
    },
    {
      "constant": true,
      "inputs": [
        {
          "internalType": "address",
          "name": "",
          "type": "address"
        }
      ],
      "name": "Balance",
      "outputs": [
        {
          "internalType": "uint256",
          "name": "",
          "type": "uint256"
        }
      ],
      "payable": false,
      "stateMutability": "view",
      "type": "function"
    },
    {
      "constant": true,
      "inputs": [],
      "name": "totalAccount",
      "outputs": [
        {
          "internalType": "uint256",
          "name": "",
          "type": "uint256"
        }
      ],
      "payable": false,
      "stateMutability": "view",
      "type": "function"
    },
    {
      "constant": false,
      "inputs": [],
      "name": "initAccount",
      "outputs": [
        {
          "internalType": "uint256",
          "name": "",
          "type": "uint256"
        }
      ],
      "payable": true,
      "stateMutability": "payable",
      "type": "function"
    },
    {
      "constant": false,
      "inputs": [],
      "name": "deposit",
      "outputs": [
        {
          "internalType": "uint256",
          "name": "",
          "type": "uint256"
        }
      ],
      "payable": true,
      "stateMutability": "payable",
      "type": "function"
    },
    {
      "constant": false,
      "inputs": [
        {
          "internalType": "uint256",
          "name": "amount",
          "type": "uint256"
        }
      ],
      "name": "withDraw",
      "outputs": [
        {
          "internalType": "uint256",
          "name": "",
          "type": "uint256"
        }
      ],
      "payable": true,
      "stateMutability": "payable",
      "type": "function"
    }
  ],
  "bytecode": "0x6080604052670de0b6b3a7640000600255600060018190555061048f806100276000396000f3fe60806040526004361061004a5760003560e01c806314174f331461004f578063239fcf0f146100915780634ec1ce21146100f6578063d0e30db014610114578063ffdc61f714610132575b600080fd5b61007b6004803603602081101561006557600080fd5b810190808035906020019092919050505061015d565b6040518082815260200191505060405180910390f35b34801561009d57600080fd5b506100e0600480360360208110156100b457600080fd5b81019080803573ffffffffffffffffffffffffffffffffffffffff169060200190929190505050610287565b6040518082815260200191505060405180910390f35b6100fe61029f565b6040518082815260200191505060405180910390f35b61011c61033a565b6040518082815260200191505060405180910390f35b34801561013e57600080fd5b50610147610454565b6040518082815260200191505060405180910390f35b60008060003373ffffffffffffffffffffffffffffffffffffffff1673ffffffffffffffffffffffffffffffffffffffff168152602001908152602001600020548211156101aa57600080fd5b816000803373ffffffffffffffffffffffffffffffffffffffff1673ffffffffffffffffffffffffffffffffffffffff168152602001908152602001600020600082825403925050819055503373ffffffffffffffffffffffffffffffffffffffff166108fc60025484029081150290604051600060405180830381858888f19350505050158015610240573d6000803e3d6000fd5b506000803373ffffffffffffffffffffffffffffffffffffffff1673ffffffffffffffffffffffffffffffffffffffff168152602001908152602001600020549050919050565b60006020528060005260406000206000915090505481565b6000346000803373ffffffffffffffffffffffffffffffffffffffff1673ffffffffffffffffffffffffffffffffffffffff168152602001908152602001600020819055506001600081548092919060010191905055506000803373ffffffffffffffffffffffffffffffffffffffff1673ffffffffffffffffffffffffffffffffffffffff16815260200190815260200160002054905090565b600080341161034857600080fd5b6000600254348161035557fe5b049050806000803373ffffffffffffffffffffffffffffffffffffffff1673ffffffffffffffffffffffffffffffffffffffff168152602001908152602001600020600082825401925050819055507f14558f60a55f03caac2b3dabdda0b51b20b0e22ce09a2c28cd1dc18e873578e83382604051808373ffffffffffffffffffffffffffffffffffffffff1673ffffffffffffffffffffffffffffffffffffffff1681526020018281526020019250505060405180910390a16000803373ffffffffffffffffffffffffffffffffffffffff1673ffffffffffffffffffffffffffffffffffffffff1681526020019081526020016000205491505090565b6001548156fea265627a7a723158206c3c001eb7bc4b4c328fa1c71ebf3582536cd2491e6e6131b8d9a53749446f8064736f6c634300050c0032",
  "source": "pragma solidity^0.5.0;\n\ncontract Dbank{\n\n    // Balance will store the deposit ether of each address\n    mapping(address=>uint256) public Balance;\n    event depositMade(address accAddress, uint256 amount);\n    uint256 public totalAccount;\n    uint256  convertor = 1000000000000000000;\n\n\n    constructor () public payable{\n        totalAccount = 0;\n\n    }\n    \n    function initAccount() public payable returns(uint256){\n        Balance[msg.sender]=msg.value;\n        totalAccount++;\n        return(Balance[msg.sender]);\n    }\n    \n    function deposit () public payable returns (uint256){\n        \n        require(msg.value>0);\n        uint256 amount = msg.value/convertor;\n       Balance[msg.sender] += amount;\n       \n       emit  depositMade(msg.sender,amount);\n       \n       return Balance[msg.sender];\n    }\n     \n    function withDraw(uint256 amount) public payable returns(uint256){\n\n        require(amount<=Balance[msg.sender]);\n        Balance[msg.sender]-=amount;\n        msg.sender.transfer(amount*convertor);\n    \n        return(Balance[msg.sender]);\n\t}\n\n\n}\n\n",
  "sourcePath": "/root/Blockchain/DBank/contracts/MetaCoin.sol",
  "compiler": {
    "name": "solc",
    "version": "0.5.12+commit.7709ece9.Emscripten.clang"
  },
  "schemaVersion": "3.0.19",
  "updatedAt": "2019-12-23T18:19:16.710Z",
  "devdoc": {
    "methods": {}
  },
  "userdoc": {
    "methods": {}
  }
}